:020000040000FA
:1000000002001700000080FB120020B9000302006C
:100010001112007912000375D0007581BF0200082B
:10002000790122EAF8EBF9801AEA24FFFAEB34FFAF
:10003000FB74006A700374006B70EEE824FFF8E94B
:1000400034FFF9740068700374006960067A4B7BB2
:100050000280DE2243FE01D2902253F5FE53FFFEC2
:1000600053F7FE22A2A0400E7A0A7B00120023A2C0
:10007000A0400379012279002212005412005A8014
:0D00800002D290120064E970F8C29080F680
:0400000500000017E0
:00000001FF
